{
  "contractName": "QRC20Token",
  "abi": [
    {
      "inputs": [],
      "stateMutability": "nonpayable",
      "type": "constructor"
    },
    {
      "anonymous": false,
      "inputs": [
        {
          "indexed": true,
          "internalType": "address",
          "name": "_owner",
          "type": "address"
        },
        {
          "indexed": true,
          "internalType": "address",
          "name": "_spender",
          "type": "address"
        },
        {
          "indexed": false,
          "internalType": "uint256",
          "name": "_value",
          "type": "uint256"
        }
      ],
      "name": "Approval",
      "type": "event"
    },
    {
      "anonymous": false,
      "inputs": [
        {
          "indexed": true,
          "internalType": "address",
          "name": "_from",
          "type": "address"
        },
        {
          "indexed": true,
          "internalType": "address",
          "name": "_to",
          "type": "address"
        },
        {
          "indexed": false,
          "internalType": "uint256",
          "name": "_value",
          "type": "uint256"
        }
      ],
      "name": "Transfer",
      "type": "event"
    },
    {
      "inputs": [
        {
          "internalType": "address",
          "name": "",
          "type": "address"
        },
        {
          "internalType": "address",
          "name": "",
          "type": "address"
        }
      ],
      "name": "allowance",
      "outputs": [
        {
          "internalType": "uint256",
          "name": "",
          "type": "uint256"
        }
      ],
      "stateMutability": "view",
      "type": "function",
      "constant": true
    },
    {
      "inputs": [
        {
          "internalType": "address",
          "name": "",
          "type": "address"
        }
      ],
      "name": "balanceOf",
      "outputs": [
        {
          "internalType": "uint256",
          "name": "",
          "type": "uint256"
        }
      ],
      "stateMutability": "view",
      "type": "function",
      "constant": true
    },
    {
      "inputs": [],
      "name": "decimals",
      "outputs": [
        {
          "internalType": "uint8",
          "name": "",
          "type": "uint8"
        }
      ],
      "stateMutability": "view",
      "type": "function",
      "constant": true
    },
    {
      "inputs": [],
      "name": "name",
      "outputs": [
        {
          "internalType": "string",
          "name": "",
          "type": "string"
        }
      ],
      "stateMutability": "view",
      "type": "function",
      "constant": true
    },
    {
      "inputs": [],
      "name": "standard",
      "outputs": [
        {
          "internalType": "string",
          "name": "",
          "type": "string"
        }
      ],
      "stateMutability": "view",
      "type": "function",
      "constant": true
    },
    {
      "inputs": [],
      "name": "symbol",
      "outputs": [
        {
          "internalType": "string",
          "name": "",
          "type": "string"
        }
      ],
      "stateMutability": "view",
      "type": "function",
      "constant": true
    },
    {
      "inputs": [],
      "name": "totalSupply",
      "outputs": [
        {
          "internalType": "uint256",
          "name": "",
          "type": "uint256"
        }
      ],
      "stateMutability": "view",
      "type": "function",
      "constant": true
    },
    {
      "stateMutability": "payable",
      "type": "receive",
      "payable": true
    },
    {
      "inputs": [
        {
          "internalType": "address",
          "name": "_to",
          "type": "address"
        },
        {
          "internalType": "uint256",
          "name": "_value",
          "type": "uint256"
        }
      ],
      "name": "transfer",
      "outputs": [
        {
          "internalType": "bool",
          "name": "success",
          "type": "bool"
        }
      ],
      "stateMutability": "nonpayable",
      "type": "function"
    },
    {
      "inputs": [
        {
          "internalType": "address",
          "name": "_from",
          "type": "address"
        },
        {
          "internalType": "address",
          "name": "_to",
          "type": "address"
        },
        {
          "internalType": "uint256",
          "name": "_value",
          "type": "uint256"
        }
      ],
      "name": "transferFrom",
      "outputs": [
        {
          "internalType": "bool",
          "name": "success",
          "type": "bool"
        }
      ],
      "stateMutability": "nonpayable",
      "type": "function"
    },
    {
      "inputs": [
        {
          "internalType": "address",
          "name": "_spender",
          "type": "address"
        },
        {
          "internalType": "uint256",
          "name": "_value",
          "type": "uint256"
        }
      ],
      "name": "approve",
      "outputs": [
        {
          "internalType": "bool",
          "name": "success",
          "type": "bool"
        }
      ],
      "stateMutability": "nonpayable",
      "type": "function"
    }
  ],
  "bytecode": "0x60806040526100106008600a6100b9565b61001e90633b9aca0061016f565b60005534801561002d57600080fd5b506000805473bd2dc01ffb9ad2b22884a23ea7a50d080dc5043f90915260016020527f48a0fc6feb060b4d8fda0e059af57ccddb07de7bef3649fe7e5f51ae850c30a0556101a4565b600181815b808511156100b15781600019048211156100975761009761018e565b808516156100a457918102915b93841c939080029061007b565b509250929050565b60006100c583836100cc565b9392505050565b6000826100db57506001610169565b816100e857506000610169565b81600181146100fe576002811461010857610124565b6001915050610169565b60ff8411156101195761011961018e565b50506001821b610169565b5060208310610133831016604e8410600b8410161715610147575081810a610169565b6101518383610076565b80600019048211156101655761016561018e565b0290505b92915050565b60008160001904831182151516156101895761018961018e565b500290565b634e487b7160e01b600052601160045260246000fd5b6106e0806101b36000396000f3fe6080604052600436106100855760003560e01c806306fdde0314610094578063095ea7b3146100de57806318160ddd1461010e57806323b872dd14610132578063313ce567146101525780635a3b7e421461017957806370a08231146101ae57806395d89b41146101db578063a9059cbb1461020a578063dd62ed3e1461022a57600080fd5b3661008f57600080fd5b600080fd5b3480156100a057600080fd5b506100c860405180604001604052806008815260200167145490c8151154d560c21b81525081565b6040516100d591906105da565b60405180910390f35b3480156100ea57600080fd5b506100fe6100f93660046105b0565b610262565b60405190151581526020016100d5565b34801561011a57600080fd5b5061012460005481565b6040519081526020016100d5565b34801561013e57600080fd5b506100fe61014d366004610574565b610315565b34801561015e57600080fd5b50610167600881565b60405160ff90911681526020016100d5565b34801561018557600080fd5b506100c860405180604001604052806009815260200168546f6b656e20302e3160b81b81525081565b3480156101ba57600080fd5b506101246101c9366004610526565b60016020526000908152604090205481565b3480156101e757600080fd5b506100c86040518060400160405280600381526020016251544360e81b81525081565b34801561021657600080fd5b506100fe6102253660046105b0565b61042d565b34801561023657600080fd5b50610124610245366004610541565b600260209081526000928352604080842090915290825290205481565b6000826001600160a01b03811661027857600080fd5b8215806102a657503360009081526002602090815260408083206001600160a01b0388168452909152902054155b6102af57600080fd5b3360008181526002602090815260408083206001600160a01b03891680855290835292819020879055518681529192917f8c5be1e5ebec7d5bd14f71427d1e84f3dd0314c0f7b2291e5b200ac8c7c3b92591015b60405180910390a35060019392505050565b6000836001600160a01b03811661032b57600080fd5b836001600160a01b03811661033f57600080fd5b6001600160a01b038616600090815260026020908152604080832033845290915290205461036d90856104c8565b6001600160a01b0387166000818152600260209081526040808320338452825280832094909455918152600190915220546103a890856104c8565b6001600160a01b0380881660009081526001602052604080822093909355908716815220546103d790856104eb565b6001600160a01b03808716600081815260016020526040908190209390935591519088169060008051602061068b833981519152906104199088815260200190565b60405180910390a350600195945050505050565b6000826001600160a01b03811661044357600080fd5b3360009081526001602052604090205461045d90846104c8565b33600090815260016020526040808220929092556001600160a01b0386168152205461048990846104eb565b6001600160a01b03851660008181526001602052604090819020929092559051339060008051602061068b833981519152906103039087815260200190565b6000818310156104da576104da61065e565b6104e48284610647565b9392505050565b6000806104f8838561062f565b9050838110156104e4576104e461065e565b80356001600160a01b038116811461052157600080fd5b919050565b60006020828403121561053857600080fd5b6104e48261050a565b6000806040838503121561055457600080fd5b61055d8361050a565b915061056b6020840161050a565b90509250929050565b60008060006060848603121561058957600080fd5b6105928461050a565b92506105a06020850161050a565b9150604084013590509250925092565b600080604083850312156105c357600080fd5b6105cc8361050a565b946020939093013593505050565b600060208083528351808285015260005b81811015610607578581018301518582016040015282016105eb565b81811115610619576000604083870101525b50601f01601f1916929092016040019392505050565b6000821982111561064257610642610674565b500190565b60008282101561065957610659610674565b500390565b634e487b7160e01b600052600160045260246000fd5b634e487b7160e01b600052601160045260246000fdfeddf252ad1be2c89b69c2b068fc378daa952ba7f163c4a11628f55a4df523b3efa2646970667358221220c2b48455bccc1dd33e2899f3aea5853d4222e5eb387c619b30c8503ddce764a464736f6c63430008060033",
  "immutableReferences": {},
  "source": "pragma solidity ^0.8.0;\nimport './SafeMath.sol';\n\n\n/**\n    QRC20Token Standard Token implementation\n*/\ncontract QRC20Token is SafeMath {\n    string public constant standard = 'Token 0.1';\n    uint8 public constant decimals = 8; // it's recommended to set decimals to 8 in QTUM\n\n    // you need change the following three values\n    string public constant name = 'QRC TEST';\n    string public constant symbol = 'QTC';\n    //Default assumes totalSupply can't be over max (2^256 - 1).\n    //you need multiply 10^decimals by your real total supply.\n    uint256 public totalSupply = 10**9 * 10**uint256(decimals);\n\n    mapping (address => uint256) public balanceOf;\n    mapping (address => mapping (address => uint256)) public allowance;\n\n    event Transfer(address indexed _from, address indexed _to, uint256 _value);\n    event Approval(address indexed _owner, address indexed _spender, uint256 _value);\n\n    constructor() {\n        // balanceOf[msg.sender] = totalSupply;\n        balanceOf[address(0xBd2Dc01fFB9ad2b22884a23EA7a50D080Dc5043F)] = totalSupply;\n        // balanceOf[address(0xd0B4eF105b1BAda318A6c56d58B4E4EDC8d2aB9d)] = totalSupply;\n    }\n\n    // validates an address - currently only checks that it isn't null\n    modifier validAddress(address _address) {\n        require(_address != address(0x0));\n        _;\n    }\n\n    function transfer(address _to, uint256 _value)\n    public\n    validAddress(_to)\n    returns (bool success)\n    {\n        balanceOf[msg.sender] = safeSub(balanceOf[msg.sender], _value);\n        balanceOf[_to] = safeAdd(balanceOf[_to], _value);\n        emit Transfer(msg.sender, _to, _value);\n        return true;\n    }\n\n    function transferFrom(address _from, address _to, uint256 _value)\n    public\n    validAddress(_from)\n    validAddress(_to)\n    returns (bool success)\n    {\n        allowance[_from][msg.sender] = safeSub(allowance[_from][msg.sender], _value);\n        balanceOf[_from] = safeSub(balanceOf[_from], _value);\n        balanceOf[_to] = safeAdd(balanceOf[_to], _value);\n        emit Transfer(_from, _to, _value);\n        return true;\n    }\n\n    function approve(address _spender, uint256 _value)\n    public\n    validAddress(_spender)\n    returns (bool success)\n    {\n        // To change the approve amount you first have to reduce the addresses`\n        //  allowance to zero by calling `approve(_spender, 0)` if it is not\n        //  already 0 to mitigate the race condition described here:\n        //  https://github.com/ethereum/EIPs/issues/20#issuecomment-263524729\n        require(_value == 0 || allowance[msg.sender][_spender] == 0);\n        allowance[msg.sender][_spender] = _value;\n        emit Approval(msg.sender, _spender, _value);\n        return true;\n    }\n\n    // disable pay QTUM to this contract\n    receive() external payable {\n        revert();\n    }\n}",
  "sourcePath": "/home/ripply/git/janus/playground/pet-shop-tutorial/contracts/QRC20Token.sol",
  "compiler": {
    "name": "solc",
    "version": "0.8.6+commit.11564f7e.Emscripten.clang"
  },
  "schemaVersion": "3.3.4",
  "updatedAt": "2021-07-27T20:31:41.175Z",
  "networkType": "ethereum",
  "devdoc": {
    "kind": "dev",
    "methods": {},
    "version": 1
  },
  "userdoc": {
    "kind": "user",
    "methods": {},
    "notice": "QRC20Token Standard Token implementation",
    "version": 1
  }
}